:1000000000400020AD07000097080000970800009E
:1000100000000000000000000000000000000000E0
:100020000000000000000000000000009708000031
:100030000000000000000000970800009708000082
:1000400097080000970800007D0100009708000055
:1000500097080000000000009708000097080000C3
:10006000970800002D030000970800009708000083
:100070009708000097080000970800009708000004
:1000800097080000970800009708000097080000F4
:1000900097080000970800009708000097080000E4
:1000A0009708000097080000000000000000000012
:1000B0000000000000000000000000000000000040
:1000C000054B1A6805498854596801315960013255
:1000D0007F210A401A6070470400002020000020A1
:1000E000064B9A680649885CC0B259680139596064
:1000F00001327F210A409A607047C0460400002008
:1001000020000020104900230B60104A10481060A6
:10011000104A1360104A18201060104A0130106015
:1001200004220A600E490B600E490B6001330E4930
:100130000B600E490B600E49673008600D490A607C
:100140000D4AD3607047C04600250040242500407A
:10015000005027006C2500400C250040142500406D
:100160001C210040082100400020004008200040E1
:100170000423004000E100E00400002010B50A4B19
:100180001B68002B09D0084B00221A60074B5B68E4
:10019000002B03D1054B0132DA6010BDFFF7A0FF41
:1001A000034B1860F9E7C0461C2100400400002002
:1001B0001C25004010B50C4B5B68802B04D10A4A0B
:1001C00020BF5368802BFBD072B6074BDB68002B37
:1001D00006D0064B1860044B0022DA6062B610BDF0
:1001E000FFF76EFFFAE7C046040000201C25004020
:1001F00070B500290FDD0400461808E00D20FFF758
:10020000D9FF2800FFF7D6FF0134B44203D0257888
:100210000A2DF6D1F2E770BD074A1368002BFCD017
:10022000064B1B68044A00211160054AE0210902BF
:100230001160FF2018407047082100401825004039
:1002400004050050F0B5C64600B50C00150000F0DE
:1002500069FA2600FF276519FFF7DEFF3B00034020
:100260000D2B1ED07F2B0FD0082B0DD0C0B203005A
:10027000203B5E2BF0D8AE42EED2731C9846307015
:10028000FFF798FF4646E7E7A642E5D9013E08207A
:10029000FFF790FF2020FFF78DFF0820FFF78AFF70
:1002A000DAE7002333700D20FFF784FF0A20FFF701
:1002B00081FF04BC9046F0BD70B5164B1A69164B11
:1002C0001B689A4204DA134A13690133136170BD43
:1002D000104C002323616369104D9B00595910484D
:1002E00000F020FA63699B005B595A1E93415B4200
:1002F000E022120213400B4A1360064B5A69013286
:100300005A615A69084B1B689A42DCDB014B012297
:100310009A61D8E7040000200000002008010020B6
:10032000E8090000040500500401002010B5054B49
:100330001B68002B00D110BDFFF7BEFF014B002250
:100340001A60F8E74091004001230E4A1360002232
:100350000D490A600D490A600D4A042111600D4AD9
:1003600013600D4A0D4911600D4A13600D4A80213A
:10037000490211600C4A13600C4B802292001A60F3
:100380007047C04604900040049500400895004026
:10039000109500400C9000404095004088130000EC
:1003A00000920040049300400090004000E100E013
:1003B000F0B5DE4657464E464546E0B583B0394B6C
:1003C000394A1A60FFF79EFE384800F05BFA384859
:1003D00000F0A8F9FFF7B8FF43E03B003A339B0079
:1003E00062469C503B003B339B009C503B003C339F
:1003F0009B009C503B003D33019A136043461878A4
:100400000B3701239946C844002811D03B003233F2
:100410009B005A465146995007233D003335EA1850
:1004200001001941214092009151013BF7D2D4E7DC
:10043000204B00225A611A619A611F4A0121116002
:100440009B69002B04D11B4A20BF9369002BFBD072
:100450001A4B01221A601A4800F064F9194B002265
:100460001A60642218491948FFF7ECFE184800F09A
:1004700059F90023174801219A0011500133322BFA
:10048000FAD1114B18780028D2D0134B9846002788
:10049000104B9B4600239A4601245E46DC460F4BD8
:1004A0000193B3E714050050F0FF0000102700008F
:1004B000EC0900000400002000900040049000407F
:1004C0003C0A000004050050A00000200C0A0000B7
:1004D000280A000008010020A100002004010020DB
:1004E000F0B5C64600B504000E0017000F37002314
:1004F000D3730B4B9846013F3100200000F06EFA99
:1005000043465B5C3B7025003100200000F0E0F9C1
:100510000400B542EFD2380004BC9046F0BDC0469E
:10052000440A000070B506000D001400117800297F
:1005300005D02800B047013421780029F9D170BDD9
:10054000F0B5CE46474680B585B007008846150011
:100550001E001178002960D02D2399464EE002CE6E
:10056000C9B24046B84745E001CE002809DB6A46DB
:100570000A21FFF7B5FF020041463800FFF7D2FF1E
:1005800038E040426A460A21FFF7AAFF421E4B4666
:100590001370F1E704CE41463800FFF7C3FF29E0AE
:1005A00001CE6A460A21FFF79BFF02004146380050
:1005B000FFF7B8FF1EE020CE002D03D130214046CA
:1005C000B84717E030214046B84778214046B84741
:1005D0006A4610212800FFF783FF020041463800D9
:1005E000FFF7A0FF06E019004046B84702E040468A
:1005F000B8472C00651C617800290ED02529F6D15A
:100600006B78002BF3D06C1C1A00633AD1B2152919
:10061000E9D88A0003498A58974605B00CBC904631
:100620009946F0BD580A000010B50300080098472D
:1006300010BD03685A1C02601970704770B5040041
:100640000D000369102B04D023695A1C2261E55464
:1006500070BD1021FFF7CCFD00232361F4E710B536
:10066000037800242D2B16D001780B00303B092B8A
:1006700014D80022013093009B185B005B18303BBC
:100680001A0001780B00303B092BF3D91000002C25
:1006900000D0504210BD01300134E5E70022F5E7FB
:1006A0000200002003E000013038181801321378EE
:1006B000190030390929F6D919006139052903D8FB
:1006C000000157381818F1E719004139052903D8F6
:1006D000000137381818E9E7704710B513000A0011
:1006E00001000248FFF72CFF10BDC046290600009C
:1006F0000EB410B583B0040005AB04CB0190009399
:1007000001A90748FFF71CFF019B5A1C0192002218
:100710001A70019B181B03B010BC08BC03B018472B
:10072000330600000FB400B589B00AAB04CB00213A
:100730000691079302A90648FFF702FF069B019363
:10074000190002A8FFF754FD09B008BC04B018470F
:100750003D06000010B5FFF72BFE20BFFDE710B5EA
:10076000002A05D00023CC5CC45401339342FAD153
:1007700010BD10B5884208D8002A05D00023CC5CF3
:10078000C45401339342FAD110BD531E002AFBD04A
:10079000CA5CC254013BFBD2F6E7002A05D0030035
:1007A0008218197001339342FBD1704770B50E4B1C
:1007B00000221A60013BFF3B01321A600A4A1368AB
:1007C000002BFCD0094D0A4C641B0A480A4A121A35
:1007D0000A49FFF7C4FF220000212800FFF7DDFFD0
:1007E000FFF7B8FF70BDC0460001004004000020C4
:1007F000781800200000002004000020B00A00004B
:1008000030B500230139D41A002C0ADDC45C013351
:10081000CD5CAC42F7D0AC4280410123984301301B
:1008200000E0002030BD70B5002812DB83109B0073
:10083000124A944663441C68C000FF22160086409A
:1008400003252E40B4430A4082402A4022431A60C6
:1008500070BD03000C339B109B00094A944663440F
:100860001C68C000FF221600864003252E40B443BA
:100870000A4082402A4022431A60E9E700E400E08F
:1008800018ED00E0400005D0C046C046C046013823
:100890000028F9D1704770B572B6084B084A1A6043
:1008A000084C8026F601084D26602800FFF7EAFF75
:1008B000002323600548FFF7E5FFF5E71405005026
:1008C000F0FF00000405005020A10700A0860100F1
:1008D000002243088B4274D303098B425FD3030A7F
:1008E0008B4244D3030B8B4228D3030C8B420DD392
:1008F000FF22090212BA030C8B4202D31212090220
:1009000065D0030B8B4219D300E0090AC30B8B425D
:1009100001D3CB03C01A5241830B8B4201D38B030B
:10092000C01A5241430B8B4201D34B03C01A5241B0
:10093000030B8B4201D30B03C01A5241C30A8B42F3
:1009400001D3CB02C01A5241830A8B4201D38B02DE
:10095000C01A5241430A8B4201D34B02C01A524182
:10096000030A8B4201D30B02C01A5241CDD2C309F4
:100970008B4201D3CB01C01A524183098B4201D370
:100980008B01C01A524143098B4201D34B01C01A5B
:10099000524103098B4201D30B01C01A5241C308D3
:1009A0008B4201D3CB00C01A524183088B4201D342
:1009B0008B00C01A524143088B4201D34B00C01A2E
:1009C0005241411A00D20146524110467047FFE79A
:1009D00001B5002000F006F802BDC0460029F7D09E
:1009E00076E770477047C046256400000A48656C8A
:1009F0006C6F20526564204C696768742054726182
:100A00006E736D6974746572210A0A00456E7465AF
:100A1000722061206D65737361676520746F207348
:100A2000656E643A2000000053656E64696E67204D
:100A30006D6573736167652E2E2E0A000A446F6E12
:100A400065210A0030313233343536373839616246
:100A500063646566000000005E0500006805000034
:100A6000E6050000E6050000E6050000E6050000DA
:100A7000E6050000E6050000E6050000E6050000CA
:100A8000E6050000E6050000E6050000E6050000BA
:100A9000E6050000E605000094050000E6050000FC
:100AA000A0050000E6050000E6050000B605000010
:040AB0001000000032
:04000003000007AD45
:00000001FF
