:1000000000400020E5070000CF080000CF080000F6
:1000100000000000000000000000000000000000E0
:10002000000000000000000000000000CF080000F9
:100030000000000000000000CF080000CF08000012
:10004000CF080000CF0800007D010000CF080000AD
:10005000CF08000000000000CF080000CF0800001B
:10006000CF0800006D030000CF080000CF0800009B
:10007000CF080000CF080000CF080000CF08000024
:10008000CF080000CF080000CF080000CF08000014
:10009000CF080000CF080000CF080000CF08000004
:1000A000CF080000CF0800000000000000000000A2
:1000B0000000000000000000000000000000000040
:1000C000054B1A6805498854596801315960013255
:1000D0007F210A401A60704704000020AC00002015
:1000E000064B9A680649885CC0B259680139596064
:1000F00001327F210A409A607047C0460400002008
:10010000AC000020104900230B60104A104810601A
:10011000104A1360104A18201060104A0130106015
:1001200004220A600E490B600E490B6001330E4930
:100130000B600E490B600E49673008600A600D497C
:100140000A600D4AD3607047002500402425004016
:10015000005027006C2500400C250040142500406D
:100160001C210040082100400020004008200040E1
:100170000423004000E100E00400002010B5144B0F
:100180001B68002B09D0124B00221A60114B5B68D0
:10019000002B18D10F4B0132DA600F4B1B68002B7C
:1001A00010D00D4B00221A600C4B1968094B1A69CC
:1001B000C9B20B48815401327F210A401A615A6941
:1001C00001325A6110BDFFF78BFF064B1860E4E760
:1001D0001C21004004000020082100401825004098
:1001E0002C0000201C25004010B50C4B5B68802BB8
:1001F00004D10A4A20BF5368802BFBD072B6074B4C
:10020000DB68002B06D0064B1860044B0022DA6036
:1002100062B610BDFFF754FFFAE7C04604000020A5
:100220001C25004070B500290FDD0400461808E0C9
:100230000D20FFF7D9FF2800FFF7D6FF0134B442A5
:1002400003D025780A2DF6D1F2E770BD0B4B5B6920
:10025000002B04DC094A20BF5369002BFBDD074B50
:100260009A690749885CC0B201327F210A409A61CD
:1002700072B65A69013A5A6162B6704704000020AA
:100280002C000020F0B5C64600B50C00150000F0AB
:1002900065FA2600FF276519FFF7D8FF3B000340EA
:1002A0000D2B1ED07F2B0FD0082B0DD0C0B203001A
:1002B000203B5E2BF0D8AE42EED2731C98463070D5
:1002C000FFF792FF4646E7E7A642E5D9013E082040
:1002D000FFF78AFF2020FFF787FF0820FFF784FF42
:1002E000DAE7002333700D20FFF77EFF0A20FFF7C7
:1002F0007BFF04BC9046F0BD70B5164BDA69164B17
:100300001B689A4204DA134AD3690133D36170BD82
:10031000104C0023E361236A104D9B00595910488B
:1003200000F01CFA236A9B005B595A1E93415B4202
:10033000E022120213400B4A1360064B1A6A013284
:100340001A621A6A084B1B689A42DCDB014B0122D5
:100350005A62D8E704000020000000209401002029
:10036000200A0000040500509001002010B5054B44
:100370001B68002B00D110BDFFF7BEFF014B002210
:100380001A60F8E74091004001230D4A13600022F3
:100390000C490A600C490A600C4A042111600C4A9D
:1003A00013600C4A0C4911600C4A13600C4B8022FC
:1003B00052021A600B4B802292001A607047C046AE
:1003C00004900040049500400895004010950040BE
:1003D0000C900040409500408813000000920040BF
:1003E0000493004000E100E0F0B5DE4657464E467B
:1003F0004546E0B583B0394B394A1A60FFF782FEB3
:10040000384800F05BFA384800F0A8F9FFF7BCFF65
:1004100043E08B0062469D504B1C9B009D508B1C03
:100420009B009D50CB1C019A13604B461C780B23FC
:100430009A46D0440B310A3B9A46D144002C13D043
:100440000B00083B9B005A4600209850CB1F4046AB
:100450003930C21A2600164132002A409E00F2515D
:1004600001338B42F5D1D4E7204B00221A62DA61C6
:100470005A621F4A012111605B6A002B04D11B4A9A
:1004800020BF536A002BFBD01A4B01221A601A4876
:1004900000F064F9194B00221A60642218491948C7
:1004A000FFF7F0FE184800F059F900231748012122
:1004B0009A0011500133322BFAD1114B1C78002CC9
:1004C000D2D0134B99463A21002398460F4B9B46B6
:1004D00001251F009C460F4B0193B1E71405005006
:1004E000F0FF000010270000240A00000400002094
:1004F0000090004004900040740A00000405005081
:100500002C010020440A0000600A00009401002031
:100510002D01002090010020F0B5C64600B5040072
:100520000E0017000F370023D3730B4B9846013F83
:100530003100200000F06EFA43465B5C3B70250002
:100540003100200000F0E0F90400B542EFD238009D
:1005500004BC9046F0BDC0467C0A000070B50600A1
:100560000D0014001178002905D02800B04701348F
:1005700021780029F9D170BDF0B5CE46474680B547
:1005800085B00700884615001E001178002960D04C
:100590002D2399464EE002CEC9B24046B84745E009
:1005A00001CE002809DB6A460A21FFF7B5FF0200E9
:1005B00041463800FFF7D2FF38E040426A460A2140
:1005C000FFF7AAFF421E4B461370F1E704CE4146E7
:1005D0003800FFF7C3FF29E001CE6A460A21FFF782
:1005E0009BFF020041463800FFF7B8FF1EE020CE17
:1005F000002D03D130214046B84717E03021404656
:10060000B84778214046B8476A4610212800FFF7CE
:1006100083FF020041463800FFF7A0FF06E0190003
:100620004046B84702E04046B8472C00651C617858
:1006300000290ED02529F6D16B78002BF3D06C1C45
:100640001A00633AD1B21529E9D88A0003498A58B9
:10065000974605B00CBC90469946F0BD900A000044
:1006600010B503000800984710BD03685A1C0260CB
:100670001970704770B504000D000369102B04D089
:1006800023695A1C2261E55470BD1021FFF7CAFD91
:1006900000232361F4E710B5037800242D2B16D036
:1006A00001780B00303B092B14D800220130930055
:1006B0009B185B005B18303B1A0001780B00303B45
:1006C000092BF3D91000002C00D0504210BD01308E
:1006D0000134E5E70022F5E70200002003E0000115
:1006E0003038181801321378190030390929F6D931
:1006F00019006139052903D8000157381818F1E7A6
:1007000019004139052903D8000137381818E9E7DD
:10071000704710B513000A0001000248FFF72CFFD4
:1007200010BDC046610600000EB410B583B00400D1
:1007300005AB04CB0190009301A90748FFF71CFF0C
:10074000019B5A1C019200221A70019B181B03B0D6
:1007500010BC08BC03B018476B0600000FB400B50E
:1007600089B00AAB04CB00210691079302A9064881
:10077000FFF702FF069B0193190002A8FFF752FD45
:1007800009B008BC04B018477506000010B5FFF7A3
:100790002BFE20BFFDE710B5002A05D00023CC5C5E
:1007A000C45401339342FAD110BD10B5884208D821
:1007B000002A05D00023CC5CC45401339342FAD103
:1007C00010BD531E002AFBD0CA5CC254013BFBD2B1
:1007D000F6E7002A05D0030082181970013393420E
:1007E000FBD1704770B50E4B00221A60013BFF3BF6
:1007F00001321A600A4A1368002BFCD0094D0A4CDA
:10080000641B0A480A4A121A0A49FFF7C4FF220069
:1008100000212800FFF7DDFFFFF7B8FF70BDC046DD
:100820000001004004000020041900200000002006
:1008300004000020E80A000030B500230139D41A72
:10084000002C0ADDC45C0133CD5CAC42F7D0AC4275
:10085000804101239843013000E0002030BD70B595
:10086000002812DB83109B00124A944663441C68E4
:10087000C000FF221600864003252E40B4430A40E4
:1008800082402A4022431A6070BD03000C339B1043
:100890009B00094A944663441C68C000FF2216006E
:1008A000864003252E40B4430A4082402A4022431A
:1008B0001A60E9E700E400E018ED00E0400005D030
:1008C000C046C046C04601380028F9D1704770B50F
:1008D00072B6084B084A1A60084C8026F601084D8B
:1008E00026602800FFF7EAFF002323600548FFF792
:1008F000E5FFF5E714050050F0FF00000405005087
:1009000020A10700A0860100002243088B4274D377
:1009100003098B425FD3030A8B4244D3030B8B4200
:1009200028D3030C8B420DD3FF22090212BA030C09
:100930008B4202D31212090265D0030B8B4219D3EA
:1009400000E0090AC30B8B4201D3CB03C01A52410A
:10095000830B8B4201D38B03C01A5241430B8B4252
:1009600001D34B03C01A5241030B8B4201D30B033B
:10097000C01A5241C30A8B4201D3CB02C01A524162
:10098000830A8B4201D38B02C01A5241430A8B4225
:1009900001D34B02C01A5241030A8B4201D30B020E
:1009A000C01A5241CDD2C3098B4201D3CB01C01A28
:1009B000524183098B4201D38B01C01A5241430932
:1009C0008B4201D34B01C01A524103098B4201D320
:1009D0000B01C01A5241C3088B4201D3CB00C01A8D
:1009E000524183088B4201D38B00C01A5241430805
:1009F0008B4201D34B00C01A5241411A00D201462A
:100A0000524110467047FFE701B5002000F006F89C
:100A100002BDC0460029F7D076E770477047C04650
:100A2000256400000A48656C6C6F20526564204C98
:100A300069676874205472616E736D69747465724D
:100A4000210A0A00456E7465722061206D6573731A
:100A500061676520746F2073656E643A2000000042
:100A600053656E64696E67206D6573736167652E8B
:100A70002E2E0A000A446F6E65210A00303132338F
:100A800034353637383961626364656600000000CA
:100A900096050000A00500001E0600001E060000CE
:100AA0001E0600001E0600001E0600001E060000B6
:100AB0001E0600001E0600001E0600001E060000A6
:100AC0001E0600001E0600001E0600001E06000096
:100AD000CC0500001E060000D80500001E06000020
:080AE0001E060000EE050000F7
:040AE80014000000F6
:04000003000007E50D
:00000001FF
