:100000000040002015090000FF090000FF09000062
:1000100000000000000000000000000000000000E0
:10002000000000000000000000000000FF090000C8
:100030000000000000000000FF090000FF090000B0
:10004000FF090000FF0900006D010000FF0900002A
:10005000FF09000000000000FF090000C1030000CC
:10006000FF09000065020000FF090000FF09000011
:10007000FF090000FF090000FF090000FF09000060
:10008000FF090000FF090000FF090000FF09000050
:10009000FF090000FF090000FF090000FF09000040
:1000A000FF090000FF090000000000000000000040
:1000B0000000000000000000000000000000000040
:1000C000054B1A6805498854596801315960013255
:1000D0007F210A401A607047040000202820002079
:1000E000064B9A680649885CC0B259680139596064
:1000F00001327F210A409A607047C0460400002008
:10010000282000200E4900230B600E4A0E48106084
:100110000E4A13600E4A182010600E4A013010601B
:1001200004220A600C490B6001330C490B600C4936
:10013000673008600B490A600B4AD3607047C046BD
:100140000025004024250040005027006C25004079
:100150000C250040142500401C21004008200040D0
:100160000423004000E100E00400002010B50A4B29
:100170001B68002B09D0084B00221A60074B5B68F4
:10018000002B03D1054B0132DA6010BDFFF7A8FF49
:10019000034B1860F9E7C0461C2100400400002012
:1001A0001C25004010B50C4B5B68802B04D10A4A1B
:1001B00020BF5368802BFBD072B6074BDB68002B47
:1001C00006D0064B1860044B0022DA6062B610BD00
:1001D000FFF776FFFAE7C046040000201C25004028
:1001E00070B500290FDD0400461808E00D20FFF768
:1001F000D9FF2800FFF7D6FF0134B44203D0257899
:100200000A2DF6D1F2E770BD064B00221A60064BAC
:1002100003321A60054B01321A60054B033A1A602B
:100220007047C046048500400885004010850040A6
:100230000080004010B5084B01221A60074B186877
:10024000F530FF30FA21890000F0F6FB0100044888
:1002500000F01CFB10BDC0464080004040850040BF
:10026000240D00001A4B1B68002B2CD0194B1B6867
:10027000002B25D1184B1A69184B1B689A421BD3C7
:10028000154B5A698023DB009A4215DA144BFF2282
:1002900012011A60134B01221A600F4B00221A61DF
:1002A0009A6901329A619A698023DB009A420BD0E5
:1002B000094A536901335361074A136901331361D2
:1002C000034B00221A607047034B00229A61EFE74C
:1002D0004091004000740040040000200000002015
:1002E000040500500070004001230E4A13600022F4
:1002F0000D490A600D490A600D4A042111600D4A3A
:1003000013600D4A0D4911600D4A13600D4A80219A
:10031000490211600C4A13600C4B802292001A6053
:100320007047C04604900040049500400895004086
:10033000109500400C90004040950040881300004C
:1003400000920040049300400090004000E100E073
:10035000134B144A1A60144B1A6803218A431A601B
:100360001A6819318A431A601A6844318A431A603C
:100370001A680E491140E02212020A431A601A68F4
:100380000B491140802252020A431A600123094A94
:100390001360094A1360094B80221A607047C046F7
:1003A00014050050F0FF000004750040FF00FFFF3F
:1003B000FFFFFCFF007500400473004000E100E017
:1003C0000F4B1B68002B13D000230D4A13600D4AFE
:1003D00013600D4B1A680D498B699B000C481A502D
:1003E000CB69934205DD8B699B000A4A0121995034
:1003F0007047064B9B699B00064A00219950F7E71E
:1004000000710040007400400875004004000020A6
:100410002810002028000020F8B5DE4657464E463A
:100420004546E0B5FFF76EFE7C4800F0DFFAFFF7C7
:10043000EBFEFFF759FFFFF78BFF794B1B689A0024
:1004400093469B44774800F021FA774B5A69802302
:100450009B009A4204DA744A20BF51699942FBDB3F
:100460000A23FF240020714F6F4EB9468025AD004E
:1004700002E00133AB4214D09900CA599246F269A6
:100480005244F261CA59824202D90A00674950585F
:100490009A0049465258A242EBD29A0063495458F6
:1004A000E7E70019C30F181840105F4CE061E169DD
:1004B0005F4800F0EBF9002363612362A3615A4DAA
:1004C0000AE020BF08E072B6574A5169013951610C
:1004D00062B61362002817D16B69012BF1DD524916
:1004E0000A6A0132D3179B0DD2189205920DD31AC6
:1004F0000A6A92004F4952580020012AE3D19A001B
:10050000505842425041DEE7474A5269112A04DC02
:10051000454920BF4A69112AFBDD09210020454ECB
:100520008024E4009A009259801801331A1B571E48
:10053000BA415242134001390029F3D172B63A4B05
:100540005A69043A5A6162B61A6A04321A628023FE
:100550009B009842C0DA344B5B69502B04DC324A72
:1005600020BF5369502BFBDD6424062700239946E6
:100570002D4B9A462F4E08E02F4800F087F9013F97
:100580006434C8239B009C422ED053461B6A984675
:100590005946200000F0DAFA4044C3179B0DC018FA
:1005A0008005800DC31A5A1ED117890D5218920565
:1005B000920D521A92009259990089590133D81715
:1005C000800D1B189B059B0D1B1A9B009B59D21875
:1005D00051180129D0D9194800F058F90123BB401E
:1005E0004B44DBB29946CAE74946154800F04EF93C
:1005F0000D4B1A6A48321A621A6A8023DB009A424B
:1006000005DB094A136A0F498C466344136272B6CC
:10061000054A5369483B536162B65DE71027000005
:1006200000000020340D00000400002028100020ED
:10063000500D000028000020640D0000600D000037
:10064000680D000000FCFFFFF0B5C64600B50400D1
:100650000E0017000F370023D3730B4B9846013F52
:100660003100200000F06EFA43465B5C3B702500D1
:100670003100200000F0E0F90400B542EFD238006C
:1006800004BC9046F0BDC046700D000070B5060079
:100690000D0014001178002905D02800B04701345E
:1006A00021780029F9D170BDF0B5CE46474680B516
:1006B00085B00700884615001E001178002960D01B
:1006C0002D2399464EE002CEC9B24046B84745E0D8
:1006D00001CE002809DB6A460A21FFF7B5FF0200B8
:1006E00041463800FFF7D2FF38E040426A460A210F
:1006F000FFF7AAFF421E4B461370F1E704CE4146B6
:100700003800FFF7C3FF29E001CE6A460A21FFF750
:100710009BFF020041463800FFF7B8FF1EE020CEE5
:10072000002D03D130214046B84717E03021404624
:10073000B84778214046B8476A4610212800FFF79D
:1007400083FF020041463800FFF7A0FF06E01900D2
:100750004046B84702E04046B8472C00651C617827
:1007600000290ED02529F6D16B78002BF3D06C1C14
:100770001A00633AD1B21529E9D88A0003498A5888
:10078000974605B00CBC90469946F0BD840D00001C
:1007900010B503000800984710BD03685A1C02609A
:1007A0001970704770B504000D000369102B04D058
:1007B00023695A1C2261E55470BD1021FFF710FD1A
:1007C00000232361F4E710B5037800242D2B16D005
:1007D00001780B00303B092B14D800220130930024
:1007E0009B185B005B18303B1A0001780B00303B14
:1007F000092BF3D91000002C00D0504210BD01305D
:100800000134E5E70022F5E70200002003E00001E3
:100810003038181801321378190030390929F6D9FF
:1008200019006139052903D8000157381818F1E774
:1008300019004139052903D8000137381818E9E7AC
:10084000704710B513000A0001000248FFF72CFFA3
:1008500010BDC046910700000EB410B583B004006F
:1008600005AB04CB0190009301A90748FFF71CFFDB
:10087000019B5A1C019200221A70019B181B03B0A5
:1008800010BC08BC03B018479B0700000FB400B5AC
:1008900089B00AAB04CB00210691079302A9064850
:1008A000FFF702FF069B0193190002A8FFF798FCCF
:1008B00009B008BC04B01847A507000010B5FFF741
:1008C000ABFD20BFFDE710B5002A05D00023CC5CAE
:1008D000C45401339342FAD110BD10B5884208D8F0
:1008E000002A05D00023CC5CC45401339342FAD1D2
:1008F00010BD531E002AFBD0CA5CC254013BFBD280
:10090000F6E7002A05D003008218197001339342DC
:10091000FBD1704770B50E4B00221A60013BFF3BC4
:1009200001321A600A4A1368002BFCD0094D0A4CA8
:10093000641B0A480A4A121A0A49FFF7C4FF220038
:1009400000212800FFF7DDFFFFF7B8FF70BDC046AC
:100950000001004004000020A8200020000000202A
:1009600004000020DC0D000030B500230139D41A4A
:10097000002C0ADDC45C0133CD5CAC42F7D0AC4244
:10098000804101239843013000E0002030BD70B564
:10099000002812DB83109B00124A944663441C68B3
:1009A000C000FF221600864003252E40B4430A40B3
:1009B00082402A4022431A6070BD03000C339B1012
:1009C0009B00094A944663441C68C000FF2216003D
:1009D000864003252E40B4430A4082402A402243E9
:1009E0001A60E9E700E400E018ED00E0400005D0FF
:1009F000C046C046C04601380028F9D1704770B5DE
:100A000072B6084B084A1A60084C8026F601084D59
:100A100026602800FFF7EAFF002323600548FFF760
:100A2000E5FFF5E714050050F0FF00000405005055
:100A300020A10700A0860100002243088B4274D346
:100A400003098B425FD3030A8B4244D3030B8B42CF
:100A500028D3030C8B420DD3FF22090212BA030CD8
:100A60008B4202D31212090265D0030B8B4219D3B9
:100A700000E0090AC30B8B4201D3CB03C01A5241D9
:100A8000830B8B4201D38B03C01A5241430B8B4221
:100A900001D34B03C01A5241030B8B4201D30B030A
:100AA000C01A5241C30A8B4201D3CB02C01A524131
:100AB000830A8B4201D38B02C01A5241430A8B42F4
:100AC00001D34B02C01A5241030A8B4201D30B02DD
:100AD000C01A5241CDD2C3098B4201D3CB01C01AF7
:100AE000524183098B4201D38B01C01A5241430901
:100AF0008B4201D34B01C01A524103098B4201D3EF
:100B00000B01C01A5241C3088B4201D3CB00C01A5B
:100B1000524183088B4201D38B00C01A52414308D3
:100B20008B4201D34B00C01A5241411A00D20146F8
:100B3000524110467047FFE701B5002000F0F0F881
:100B400002BDC0460029F7D076E7704703460B4345
:100B50007FD4002243088B4274D303098B425FD3B6
:100B6000030A8B4244D3030B8B4228D3030C8B42E2
:100B70000DD3FF22090212BA030C8B4202D31212C8
:100B8000090265D0030B8B4219D300E0090AC30B9D
:100B90008B4201D3CB03C01A5241830B8B4201D34A
:100BA0008B03C01A5241430B8B4201D34B03C01A33
:100BB0005241030B8B4201D30B03C01A5241C30AAB
:100BC0008B4201D3CB02C01A5241830A8B4201D31C
:100BD0008B02C01A5241430A8B4201D34B02C01A06
:100BE0005241030A8B4201D30B02C01A5241CDD2AB
:100BF000C3098B4201D3CB01C01A524183098B42F6
:100C000001D38B01C01A524143098B4201D34B01DE
:100C1000C01A524103098B4201D30B01C01A524141
:100C2000C3088B4201D3CB00C01A524183088B42C8
:100C300001D38B00C01A524143088B4201D34B00B1
:100C4000C01A5241411A00D2014652411046704723
:100C50005DE0CA0F00D04942031000D34042534028
:100C600000229C4603098B422DD3030A8B4212D3E8
:100C7000FC22890112BA030A8B420CD3890192111A
:100C80008B4208D3890192118B4204D389013AD057
:100C9000921100E08909C3098B4201D3CB01C01A2C
:100CA000524183098B4201D38B01C01A524143093F
:100CB0008B4201D34B01C01A524103098B4201D32D
:100CC0000B01C01A5241C3088B4201D3CB00C01A9A
:100CD000524183088B4201D38B00C01A5241D9D2B2
:100CE00043088B4201D34B00C01A5241411A00D233
:100CF0000146634652415B10104601D34042002B2F
:100D000000D54942704763465B1000D3404201B5AD
:100D1000002000F005F802BD0029F8D016E7704762
:100D20007047C0462564206D696C6C697365630A01
:100D30000000000043616C63756C6174696E67202C
:100D40007468726573686F6C642E2E2E000000004C
:100D50005468726573686F6C643A2025640A0000F9
:100D60003100000030000000203D2025630A000013
:100D70003031323334353637383961626364656611
:100D800000000000C6060000D00600004E0700006C
:100D90004E0700004E0700004E0700004E070000FF
:100DA0004E0700004E0700004E0700004E070000EF
:100DB0004E0700004E0700004E0700004E070000DF
:100DC0004E070000FC0600004E0700000807000068
:0C0DD0004E0700004E0700001E07000048
:040DDC000200000011
:0400000300000915DB
:00000001FF
