:1000000000400020C9080000B3090000B309000047
:1000100000000000000000000000000000000000E0
:10002000000000000000000000000000B309000014
:100030000000000000000000B3090000B309000048
:10004000B3090000B30900006D010000B30900000E
:10005000B309000000000000B3090000A90300007C
:10006000B309000065020000B3090000B3090000F5
:10007000B3090000B3090000B3090000B309000090
:10008000B3090000B3090000B3090000B309000080
:10009000B3090000B3090000B3090000B309000070
:1000A000B3090000B30900000000000000000000D8
:1000B0000000000000000000000000000000000040
:1000C000054B1A6805498854596801315960013255
:1000D0007F210A401A6070470400002020000020A1
:1000E000064B9A680649885CC0B259680139596064
:1000F00001327F210A409A607047C0460400002008
:10010000200000200E4900230B600E4A0E481060AC
:100110000E4A13600E4A182010600E4A013010601B
:1001200004220A600C490B6001330C490B600C4936
:10013000673008600B490A600B4AD3607047C046BD
:100140000025004024250040005027006C25004079
:100150000C250040142500401C21004008200040D0
:100160000423004000E100E00400002010B50A4B29
:100170001B68002B09D0084B00221A60074B5B68F4
:10018000002B03D1054B0132DA6010BDFFF7A8FF49
:10019000034B1860F9E7C0461C2100400400002012
:1001A0001C25004010B50C4B5B68802B04D10A4A1B
:1001B00020BF5368802BFBD072B6074BDB68002B47
:1001C00006D0064B1860044B0022DA6062B610BD00
:1001D000FFF776FFFAE7C046040000201C25004028
:1001E00070B500290FDD0400461808E00D20FFF768
:1001F000D9FF2800FFF7D6FF0134B44203D0257899
:100200000A2DF6D1F2E770BD064B00221A60064BAC
:1002100003321A60054B01321A60054B033A1A602B
:100220007047C046048500400885004010850040A6
:100230000080004010B5084B01221A60074B186877
:10024000F530FF30FA21890000F0D0FB01000448AE
:1002500000F0F6FA10BDC0464080004040850040E6
:10026000D80C0000134B1B68002B22D0124B1B68CC
:10027000002B1BD1114B1A69114B9A4216D80F4B08
:100280005A69104B1B689A420CD30F4BFF22120184
:100290001A600E4B01221A60084B00225A611A693B
:1002A00001321A61054A536901335361014B00223F
:1002B0001A60704740910040007400400400002024
:1002C000DC05000000000020040500500070004024
:1002D00001230E4A136000220D490A600D490A608D
:1002E0000D4A042111600D4A13600D4A0D49116039
:1002F0000D4A13600D4A8021490211600C4A1360B7
:100300000C4B802292001A607047C0460490004057
:100310000495004008950040109500400C90004066
:100320004095004088130000009200400493004074
:100330000090004000E100E0134B144A1A60144B97
:100340001A6803218A431A601A6819318A431A60AD
:100350001A6844318A431A601A680E491140E02233
:1003600012020A431A601A680B4911408022520295
:100370000A431A600123094A1360094A1360094BB2
:1003800080221A607047C04614050050F0FF00003C
:1003900004750040FF00FFFFFFFFFCFF00750040F9
:1003A0000473004000E100E00A4B1B68002B10D0F2
:1003B0000023084A1360084A1360084B1968084B69
:1003C0001A69084B9A4204D8054B1B699B00064AE0
:1003D000995070470071004000740040087500405B
:1003E00004000020DB05000010180020F0B5D64600
:1003F0004F464646C0B582B0FFF784FE6E4800F017
:10040000CFFAFFF701FFFFF763FFFFF795FF6B4B95
:100410001A696B4B9A4205D868491A0020BF0B69CC
:100420009342FBD9674800F00BFA644B9869664B1E
:100430001E00283E1900283104CB80188B42FBD1C6
:100440000A2100F0D3FA411D5C4B99615F4800F02E
:10045000F7F95F4C5F4D604B9C466644574F5F4BCE
:1004600099465F4B984608E0484600F0E9F90023BA
:100470002B6004340435B44209D02368BA6993422E
:10048000F2D2404600F0DCF901232B60F1E7554839
:1004900000F0D6F9544B1B689A0090469844C24627
:1004A00043465B00019300930124504F4FE013003B
:1004B000AA008258B61801358D4265D0E218412B4A
:1004C000F5DDA046644661E04D462100484800F055
:1004D000B7F92D19EC0F6419631099460125002610
:1004E000424C05E03D4800F0ABF90135082D1CD029
:1004F000680140194000514600F002FB4844431E89
:100500009B00421C92001B5912599B1880000259F3
:100510009B18012BE6D9324800F092F90722521BB2
:1005200001239340F618F6B2DFE73100314800F0BE
:1005300087F92C4800F084F951468420800000F0AF
:10054000DFFA4844040001341D4B9C422CDCA3001C
:10055000DB59002BF7D1631E9B00244A9B58012BCB
:10056000F1D1631C9946164B994517DC5346412B34
:1005700007DC019B4D46002610001F49A446444657
:1005800096E74D46002601E0A046644600994220C9
:1005900000F0B6FAB04298DA4C46D8E7009942200B
:1005A00000F0AEFA00288FDAFFF744FE02B01CBC60
:1005B00090469946A246F0BD102700000400002096
:1005C000DB050000E80C000038180020F80C0000E3
:1005D00014180020A4000020701700000C0D00006B
:1005E000080D0000100D000000000020A0000020F9
:1005F000140D0000300D0000DC050000F0B5C6460B
:1006000000B504000E0017000F370023D3730B4B07
:100610009846013F3100200000F06EFA43465B5CD3
:100620003B7025003100200000F0E0F90400B542E5
:10063000EFD2380004BC9046F0BDC046380D000033
:1006400070B506000D0014001178002905D02800AF
:10065000B047013421780029F9D170BDF0B5CE46FC
:10066000474680B585B00700884615001E00117802
:10067000002960D02D2399464EE002CEC9B24046F3
:10068000B84745E001CE002809DB6A460A21FFF79A
:10069000B5FF020041463800FFF7D2FF38E0404284
:1006A0006A460A21FFF7AAFF421E4B461370F1E784
:1006B00004CE41463800FFF7C3FF29E001CE6A4669
:1006C0000A21FFF79BFF020041463800FFF7B8FF01
:1006D0001EE020CE002D03D130214046B84717E060
:1006E00030214046B84778214046B8476A46102135
:1006F0002800FFF783FF020041463800FFF7A0FF04
:1007000006E019004046B84702E04046B8472C00D2
:10071000651C617800290ED02529F6D16B78002B55
:10072000F3D06C1C1A00633AD1B21529E9D88A00BB
:1007300003498A58974605B00CBC90469946F0BDCF
:100740004C0D000010B503000800984710BD036869
:100750005A1C02601970704770B504000D000369DF
:10076000102B04D023695A1C2261E55470BD10215E
:10077000FFF736FD00232361F4E710B5037800246A
:100780002D2B16D001780B00303B092B14D80022FA
:10079000013093009B185B005B18303B1A00017816
:1007A0000B00303B092BF3D91000002C00D0504235
:1007B00010BD01300134E5E70022F5E7020000201A
:1007C00003E000013038181801321378190030396D
:1007D0000929F6D919006139052903D800015738CC
:1007E0001818F1E719004139052903D800013738F5
:1007F0001818E9E7704710B513000A000100024815
:10080000FFF72CFF10BDC046450700000EB410B521
:1008100083B0040005AB04CB0190009301A9074805
:10082000FFF71CFF019B5A1C019200221A70019BCA
:10083000181B03B010BC08BC03B018474F070000DA
:100840000FB400B589B00AAB04CB00210691079321
:1008500002A90648FFF702FF069B0193190002A8B0
:10086000FFF7BEFC09B008BC04B0184759070000E8
:1008700010B5FFF7BBFD20BFFDE710B5002A05D07E
:100880000023CC5CC45401339342FAD110BD10B59F
:10089000884208D8002A05D00023CC5CC454013318
:1008A0009342FAD110BD531E002AFBD0CA5CC25439
:1008B000013BFBD2F6E7002A05D00300821819702D
:1008C00001339342FBD1704770B50E4B00221A6082
:1008D000013BFF3B01321A600A4A1368002BFCD02F
:1008E000094D0A4C641B0A480A4A121A0A49FFF7C2
:1008F000C4FF220000212800FFF7DDFFFFF7B8FF4B
:1009000070BDC0460001004004000020802F002080
:100910000000002004000020A40D000030B50023DA
:100920000139D41A002C0ADDC45C0133CD5CAC4221
:10093000F7D0AC42804101239843013000E0002011
:1009400030BD70B5002812DB83109B00124A94461C
:1009500063441C68C000FF221600864003252E4019
:10096000B4430A4082402A4022431A6070BD03000B
:100970000C339B109B00094A944663441C68C000DA
:10098000FF221600864003252E40B4430A408240D1
:100990002A4022431A60E9E700E400E018ED00E095
:1009A000400005D0C046C046C04601380028F9D1F5
:1009B000704770B572B6084B084A1A60084C80261A
:1009C000F601084D26602800FFF7EAFF00232360A8
:1009D0000548FFF7E5FFF5E714050050F0FF0000BC
:1009E0000405005020A10700A08601000022430852
:1009F0008B4274D303098B425FD3030A8B4244D3E7
:100A0000030B8B4228D3030C8B420DD3FF22090228
:100A100012BA030C8B4202D31212090265D0030BE7
:100A20008B4219D300E0090AC30B8B4201D3CB03DD
:100A3000C01A5241830B8B4201D38B03C01A52411F
:100A4000430B8B4201D34B03C01A5241030B8B4221
:100A500001D30B03C01A5241C30A8B4201D3CB020C
:100A6000C01A5241830A8B4201D38B02C01A5241F1
:100A7000430A8B4201D34B02C01A5241030A8B42F4
:100A800001D30B02C01A5241CDD2C3098B4201D30C
:100A9000CB01C01A524183098B4201D38B01C01A8A
:100AA000524143098B4201D34B01C01A5241030901
:100AB0008B4201D30B01C01A5241C3088B4201D3B0
:100AC000CB00C01A524183088B4201D38B00C01A5D
:100AD000524143088B4201D34B00C01A5241411A84
:100AE00000D20146524110467047FFE701B5002091
:100AF00000F0F0F802BDC0460029F7D076E7704755
:100B000003460B437FD4002243088B4274D303096E
:100B10008B425FD3030A8B4244D3030B8B4228D30F
:100B2000030C8B420DD3FF22090212BA030C8B4235
:100B300002D31212090265D0030B8B4219D300E0D5
:100B4000090AC30B8B4201D3CB03C01A5241830B5A
:100B50008B4201D38B03C01A5241430B8B4201D30A
:100B60004B03C01A5241030B8B4201D30B03C01A33
:100B70005241C30A8B4201D3CB02C01A5241830AAD
:100B80008B4201D38B02C01A5241430A8B4201D3DC
:100B90004B02C01A5241030A8B4201D30B02C01A06
:100BA0005241CDD2C3098B4201D3CB01C01A52416D
:100BB00083098B4201D38B01C01A524143098B42F6
:100BC00001D34B01C01A524103098B4201D30B01DF
:100BD000C01A5241C3088B4201D3CB00C01A524104
:100BE00083088B4201D38B00C01A524143088B42C9
:100BF00001D34B00C01A5241411A00D20146524162
:100C0000104670475DE0CA0F00D04942031000D380
:100C10004042534000229C4603098B422DD3030AD5
:100C20008B4212D3FC22890112BA030A8B420CD3E5
:100C3000890192118B4208D3890192118B4204D30E
:100C400089013AD0921100E08909C3098B4201D38E
:100C5000CB01C01A524183098B4201D38B01C01AC8
:100C6000524143098B4201D34B01C01A524103093F
:100C70008B4201D30B01C01A5241C3088B4201D3EE
:100C8000CB00C01A524183088B4201D38B00C01A9B
:100C90005241D9D243088B4201D34B00C01A524172
:100CA000411A00D20146634652415B10104601D3FF
:100CB0004042002B00D54942704763465B1000D389
:100CC000404201B5002000F005F802BD0029F8D02F
:100CD00016E770477047C0462564206D696C6C69E3
:100CE0007365630A00000000446F6E6520526563FF
:100CF0006F7264696E670A005468726573686F6C1E
:100D0000643A2025640A0000310000003000000031
:100D10000A00000053746172742062697420646573
:100D20007465637465642061742025640A3A200048
:100D3000203D2025630A0000303132333435363708
:100D40003839616263646566000000007A0600005D
:100D500084060000020700000207000002070000EE
:100D6000020700000207000002070000020700005F
:100D7000020700000207000002070000020700004F
:100D8000020700000207000002070000B006000092
:100D900002070000BC060000020700000207000076
:040DA000D206000077
:040DA400010000004A
:04000003000008C928
:00000001FF
